:020000040800F2
:100000009827002029020008F32D0008F129000894
:10001000F12D000865050008A94E00080000000049
:10002000000000000000000000000000E32F0008B6
:100030003D070008000000006F2F0008BD300008D9
:10004000430200084302000843020008430200087C
:1000500043020008430200083F070008430200086B
:10006000430200084302000843020008430200085C
:10007000430200084302000843020008430200084C
:1000800081060008430200084302000843020008FA
:10009000430200084302000843020008430200082C
:1000A000430200084302000843020008430200081C
:1000B000430200084302000843020008430200080C
:1000C00043020008430200084302000843020008FC
:1000D00043020008430200084302000843020008EC
:1000E00043020008430200084302000843020008DC
:1000F00043020008430200084302000843020008CC
:1001000043020008430200084302000843020008BB
:1001100043020008430200084302000843020008AB
:100120008D0600084302000843020008430200084D
:10013000430200084302000843020008430200088B
:10014000430200084302000843020008F52D00089E
:10015000430200084302000843020008430200086B
:10016000430200084302000843020008430200085B
:100170004302000843020008430200080000000098
:10018000430200084302000800F002F800F03CF8C7
:100190000AA090E8000C82448344AAF10107DA45E2
:1001A00001D100F031F8AFF2090EBAE80F0013F0F8
:1001B000010F18BFFB1A43F0010318471451000048
:1001C00034510000103A24BF78C878C1FAD85207D9
:1001D00024BF30C830C144BF04680C6070470000C1
:1001E0000023002400250026103A28BF78C1FBD840
:1001F000520728BF30C148BF0B6070471FB505F0DC
:1002000041F81FBD10B510BD00F0E2F81146FFF730
:10021000F5FF05F00FF800F000F903B4FFF7F2FF67
:1002200003BC00F003F90000094880470948004773
:10023000FEE7FEE7FEE7FEE7FEE7FEE7FEE7FEE796
:10024000FEE7FEE704480549054A064B70470000F3
:100250005D310008890100089821002098270020BE
:10026000982300209823002053EA020C00F06980B4
:100270002DE9F04B4FF00006002B1FBFB3FA83F5BA
:1002800003FA05F424FA05F65E4012BF1643B2FAEB
:1002900082F502FA05F4C5F120051EBF22FA05FC1D
:1002A00044EA0C04203556EA044C4FEA144418BFC3
:1002B000641C4FF000084FF00009904271EB030CF2
:1002C00039D3002919BFB1FA81F701FA07F6B0FA5C
:1002D00080F700FA07F6C7F120071EBF20FA07FCD7
:1002E00046EA0C062037B6FBF4FCA7EB0507103FE7
:1002F00007F01F0BCBF120060CFA0BFB2CFA06F6CD
:1003000044BFB3460026202FA4BF5E464FF0000B2B
:100310005BEA060C08BF4FF0010B19EB0B09ABFBB6
:10032000027C48EB0608C01B06FB02CC0BFB03CC8F
:1003300071EB0C01C1E70B46024641464846BDE859
:10034000F08B13B54FF000004FF00001AFF30080C9
:10035000BDE81C4070474FF0000200B513469446BC
:100360009646203922BFA0E80C50A0E80C50B1F10D
:100370002001BFF4F7AF090728BFA0E80C5048BF21
:100380000CC05DF804EB890028BF40F8042B08BFBF
:10039000704748BF20F8022B11F0804F18BF00F8BB
:1003A000012B704770477047704710B500F008F890
:1003B000006810BD10B5044600F002F8046010BDDE
:1003C000004870473821002000487047382100203D
:1003D0007546FFF7F9FFAE4605006946534620F023
:1003E0000700854618B020B5FFF72CFFBDE8204078
:1003F0004FF000064FF000074FF000084FF0000BE1
:1004000021F00701AC46ACE8C009ACE8C009ACE893
:10041000C009ACE8C0098D46704710B50446AFF37B
:1004200000802046BDE81040FFF7F7BE01491820C4
:10043000ABBEFEE72600020070470000464910B53B
:100440004A6822F440324A604A6843681A434A6064
:1004500001684A6822F480724A6001684A68036948
:1004600042EA03224A6001684A6822F040724A6008
:1004700001684A6883681A434A6001688A6822F4FE
:1004800000628A6001688A68C3681A438A60816A68
:100490006FF07062D14201688A6822F070628A60EF
:1004A00001688A680CD0836A1A438A6001688A6886
:1004B00022F040528A6001688A68C36A1A4301E0E8
:1004C00022F040528A6001688A6822F002028A6043
:1004D00001688A68037E42EA43028A6090F820102D
:1004E000002901684A680FD042F400624A6001683E
:1004F0004A6822F460424A6001684A68174C436ABD
:1005000004EB43331A4301E022F400624A600168BD
:10051000CA6A22F47002CA620168CA6A838B104CEC
:1005200004EB03531A43CA6201688A6822F400721A
:100530008A6001688A6890F8303042EA43228A6013
:1005400001688A6822F480628A6001688A6840696A
:1005500042EA8020886010BD0023014000E0FFFFD8
:100560000000F0FFFEE70020704700207047000009
:1005700010B500220449054803F002F90449034874
:1005800003F0F1F8002010BDA4100020C8030020E3
:10059000A408002010B50146034803F0E4F802481F
:1005A00003F0BAF8002010BDC803002000207047F7
:1005B00010B59FED171A2DED028BB0EE408A9FED1E
:1005C000120A20EE800ADFED110A60EE801AF7EEC3
:1005D000000A21EE001A41EEC00A20EEA00A01EE48
:1005E000010A04F04DFD10EE100A0A49884201DAB2
:1005F0009FED090AB0EE001AC1EE000A88EE200A4B
:10060000BDEC028B10BD0000DB0FC940C7C6832FB5
:10061000DE214538BD378635BD37863510B5846B4C
:10062000204600F047FA0120207110BD10B5846B00
:10063000204600F015FA0120207110BD10B5846B22
:10064000206940F004002061204600F035FA0120C6
:10065000207110BD10B5846B206940F0040020614A
:10066000204600F0FFF90120207110BD10B5806B0D
:1006700000F021FA10BD10B5806B00F0F2F910BD4A
:10068000014800F0EFBA0000C8010020014800F066
:10069000E9BA00005401002001681823CAB2103AD8
:1006A000B2FBF3F2054B6FF30901032A9B5CC365B0
:1006B00000D9091D81650846704700008E52000868
:1006C00010B5014600208B698A6A4FF0C07453B19F
:1006D000B3F5005F15D072B1012A0CD0022A0AD0FE
:1006E000032A09D104E01AB1012A06D0022A03D153
:1006F000C96AC90100D5012010BDC96AA142FAD05A
:1007000010BD002AF7D0012AF2D0022AF3D0032A22
:10071000F3D010BD30B50468256825F48025256028
:10072000046863608368402B036803D099600068A5
:10073000C26030BD9A600068C16030BD7047012062
:1007400000F050BC72B6FEE730B5B3F5804F05D06F
:100750006FF0704140F82210002030BD8C690B68AA
:100760008D6823434C688989240144EA0524234386
:1007700043EA014150F82230014C23401943E9E794
:100780000000F0CF10B50A6850F8223023F00103C2
:1007900040F822308C68082C23D000234A6822437A
:1007A000CC681C430B6922431A434B690E4C1A4315
:1007B000CB691A430B6A1A434B6A1A438B6A1A4372
:1007C000CB6A1A430B6B1A438B691343CA6B0968D4
:1007D0001A4350F82130A343134340F8213000203E
:1007E00010BD4023DAE700007FFF0F0030B5D1E9EC
:1007F000003443EA04138C688D89240244EA0544DA
:1008000023430C8A074D00EB820005EB045423437D
:100810000C7D6D0105EB0464896923430B43436040
:10082000002030BD0000F0FF78B50024009490F85F
:100830003C20012A19D0012280F83C200A680723B5
:100840000568092A13D9EE680A3A02EB420293407E
:100850009E43EE600B788A680A3B03EB43039A40A1
:100860000368DD682A43DA6010E0022078BD2E6953
:1008700002EB420293409E432E610B788A6803EBA1
:1008800043039A4003681D692A431A614A681F237B
:10089000072A13D205686E6B521E02EB8202934048
:1008A0009E436E630B790A885B1E92B203EB83034F
:1008B0009A4003685D6B2A435A6327E005680D2A56
:1008C00012D22E6BD21F02EB820293409E432E6304
:1008D0000B790A88DB1F92B203EB83039A4003680B
:1008E0001D6B2A431A6311E0EE6A0D3A02EB820295
:1008F00093409E43EE620B790A880D3B92B203EB64
:1009000083039A400368DD6A2A43DA62164B05685E
:10091000144A9D4206D10D68122D03D1556845F445
:100920008005556005689D4218D10B68102B01D0D9
:10093000112B13D1536843F4000353600968102945
:100940000CD10A490A4A0968B1FBF2F101EB8101B5
:10095000490000E0491E00910029FBD180F83C408D
:10096000002078BD002301400020014078000020D5
:1009700040420F0070B504004FF0000503D0206C1A
:10098000002610B107E0012070BD204600F01CF8E1
:10099000666484F83C60206CC00610D4206C20F49F
:1009A000885040F0020020642046FFF747FD66644F
:1009B000206C20F0020040F00100206400E00125DE
:1009C00084F83C60284670BD70B586B00646142198
:1009D0006846FFF7C0FC1D493068884234D11C4886
:1009E0000025016841F480710160006800F48070A6
:1009F000059017481438016841F001010160006852
:100A0000694600F001000590022000900320CDE926
:100A10000105104800F0F2FA104C0F48C4E9000537
:100A20000015A560C4E90350400060618000A0612A
:100A30004011C4E907052046656200F0E3F908B1FA
:100A4000FFF780FEB463A66306B070BD00200140CE
:100A5000443802400000024010640240540100206B
:100A600070477047704770B500B3F9B14379012BF7
:100A70001ED0012646710223037105682C6802F01E
:100A8000100340F6FE729A409443D1E900210A43D4
:100A90009A4022432A6001680A68C0249C40A2430D
:100AA0000A60067100214171084670BD012070BDC9
:100AB000022070BD70477047704770B5040003D0C6
:100AC0002079002510B105E0012070BD6571204638
:100AD00000F008F80220207125610120207100201B
:100AE00070BD000070B586B0054614216846FFF75A
:100AF00032FC1F492868884237D11E480026016809
:100B000041F000510160006800F000500590194864
:100B10001038016841F0010101600068694600F089
:100B200001000590102000900320CDE90106124835
:100B300000F064FA124C114820604FF06060606071
:100B40004020C4E90206000120614000606180008D
:100B5000A0614011C4E907062046666200F052F920
:100B600008B1FFF7EFFDAC60A56306B070BD0000F3
:100B7000007400404038024000000240886002409B
:100B8000C80100202DE9F0410400069817460D46E3
:100B90001BD0617901291BD00126667102212171C8
:100BA000C5B1E2682949D163E26829491164E26864
:100BB0002849D16421680A6842F080520A6040B333
:100BC0002268042828D01C3227E00120BDE8F081EB
:100BD0000220FBE7A2682049D163A2681F49116483
:100BE000A2681F49D16421680A6842F480520A60F1
:100BF00020B12268042804D0103203E022680832B1
:100C000000E00C322068016841F400510160A068E6
:100C100009E02268143200E018322068016841F0CF
:100C200000510160E068394600F056F90021617119
:100C300020B1216941F004012161C7E721680A68F8
:100C400005F010039E4032430A60BFE72D060008FE
:100C500077060008550600081D0600086D06000806
:100C60003D0600082DE9F84304464FF00009CDF891
:100C7000009063484FF41651A56D0068B0FBF1F782
:100C80002E6894F85C10082000FA01F131420FD070
:100C900021680A6852070BD50A6822F004020A602C
:100CA00094F85C108840A860606D40F001006065B9
:100CB00094F85C104FF0010808FA01F0304208D0B7
:100CC00021684969090604D5A860606D40F00200FA
:100CD000606594F85C1004208840304208D0216898
:100CE0000968890704D5A860606D40F0040060655C
:100CF00094F85C1010208840304218D021680968B0
:100D0000090714D5A86020680168490304D5006864
:100D1000000308D5A16C07E00168C90503D4016888
:100D200021F008010160216C09B12046884794F840
:100D30005C1020208840304231D021680968C90603
:100D40002DD5A86094F8350005282068016806D0E4
:100D5000490347D5006800031DD4616C1CE021F0F5
:100D6000160101602068416921F080014161206C19
:100D700008B9A06C20B12068016821F00801016069
:100D800094F85C103F208840A86084F8358084F88F
:100D90003490216D1FE0E16B09B120468847606DFA
:100DA00000282BD0606DC00714D0052084F83500D2
:100DB0002068016821F0010101600098401C00904A
:100DC000B84203D820680068C007F6D184F835809F
:100DD00084F83490E16C002910D001B02046BDE8C1
:100DE000F04308470168C905D5D4016821F0100116
:100DF000016084F8358084F83490CCE7BDE8F8834E
:100E0000780000202DE9F041044600F0EFF9064695
:100E10005CB1022084F83500002584F83450206845
:100E2000016821F0010101600DE00120BDE8F081C1
:100E300000F0DCF9801B052805D92020606503201F
:100E400084F83500F2E720680068C007F0D1226816
:100E5000116820480140D4E901031843D4E903365E
:100E60003343184363691843A3691843E36918437C
:100E7000236A18430843616A042903D1D4E90B1398
:100E800019430843106020684069666A20F0070132
:100E900030460E43012704280CD1A06A0643E06ABD
:100EA00040B12046FFF70CFC20B14020606584F87B
:100EB0003570BAE7206846612046FFF7EDFB94F8ED
:100EC0005C203F2191408160656584F83570002089
:100ED000ACE700003F8010F02DE9F0410446866D3C
:100EE00090F83400002501280DD0012084F834004A
:100EF00094F835700020012F07D084F834000225C3
:100F00002846BDE8F0810220FBE7022784F835700F
:100F100060652046FFF7FEFB94F85C103F20884098
:100F2000B0602068016841F016010160206C20B1BA
:100F30002068016841F0080101602068016841F003
:100F400001010160DCE7000070B5044600F04EF9D5
:100F50000546601C02D004480078044400F046F9BD
:100F6000401BA042FAD370BD6C000020F0B587B0E2
:100F700014216846FFF7EFF915480168002924D1CC
:100F80000121016013480024016841F00101016062
:100F90000068022500F0010005904FF68070CDE951
:100FA000000502AA03260C2782E8D00069460A48F9
:100FB00000F024F84CF6B370CDE9000502AA6946AA
:100FC00082E8D000054800F019F807B0F0BD000035
:100FD000000000203838024000100240000C02409F
:100FE00070470000044910B50A68024202D0086048
:100FF000FFF7F6FF10BD0000143C01402DE9F84F4B
:10100000DFF8BCA10022012503264FF00F090AF1E9
:10101000040BAAF1040E00BF0B6805FA02F423408A
:10102000A34270D10F7907F00307012F01D0022FDF
:1010300016D187684FEA420806FA08FC27EA0C072F
:10104000D1F80CC00CFA08FC4CEA070CC0F808C038
:101050004768A7430C79C4F3001494403C434460B0
:101060000C79E443A4070AD0C4684FEA420C06FA9C
:101070000CF7BC438F6807FA0CF72743C7600C795D
:1010800004F00304022C12D1D40800EB840CDCF829
:1010900020405707FF0E09FA07F824EA0804D1F8A0
:1010A000108008FA07F848EA0408CCF820800468A1
:1010B0004FEA420C06FA0CF7BC430F7907F003071E
:1010C00007FA0CF7274307604C6814F4403F70D0D0
:1010D0003C4C276847F480472760246822F00307C8
:1010E00004F480440094384C07EB040CDCF8084806
:1010F00097074FEA177809FA08F7BC43334FB8420D
:1011000002D1002724E054E0314FB84201D1012739
:101110001EE0304FB84201D1022719E02E4FB842ED
:1011200001D1032714E02D4FB84201D104270FE06D
:101130002B4FB84201D105270AE02A4FB84201D10E
:10114000062705E0284FB84201D1072700E008270D
:1011500007FA08F72743CCF80878DAF80040574632
:10116000D1F804C09C435FEACC2C00D51C433C6002
:10117000DBF800405F46D1F804C09C435FEA8C2C4A
:1011800000D51C433C60DEF800407746D1F804C02F
:101190009C435FEA8C3C00D51C433C60084F083FF1
:1011A0003C68D1F804C09C435FEACC3C00D51C43AA
:1011B0003C60521C102AFFF42FAFBDE8F88F0000EE
:1011C000083C014044380240003001400000024029
:1011D0000004024000080240000C024000100240DF
:1011E0000014024000180240001C024001488068C0
:1011F000704700006C0000200248816802781144AA
:10120000816070476C0000200B4810B5016841F404
:1012100000710160016841F480610160016841F47E
:1012200080710160032000F06FF80F2000F006F8D5
:1012300000F024F8002010BD003C024070B50D4DB8
:1012400004464FF47A712878B1FBF0F00A49096836
:10125000B1FBF0F001F012FA48B9102C07D20022CD
:101260002146501E00F030F800206C6070BD012057
:1012700070BD00006C000020780000200A4808B50E
:10128000016841F480410160006800F480400090F2
:101290000548001F016841F080510160006800F0BE
:1012A0008050009008BD000044380240002809DB4F
:1012B00000F01F02012191404009800000F1E02070
:1012C000C0F8001170470000F0B40E4B1B680C46CC
:1012D000C3F30223C3F10705042D00D90425191D0A
:1012E000072901D2002300E0DB1E012606FA05F1E2
:1012F000491E214099409E40761E16403143F0BC65
:1013000003F0E6BD0CED00E0064900F007020868B6
:101310004FF6FF03184040EA0220034A10430860DA
:10132000704700000CED00E00000FA05704700680F
:10133000416200207047F0B50368586A39B19C6A71
:101340004FF4827600EB144400204D1E0AE040EA80
:10135000024098620FE006EB8007DF59401C04EB67
:101360001744C0B2A842F6D344EA02404FF4807258
:1013700002EB810158500020F0BDD0F8E00402F0EB
:10138000EABC01EBC10200EB8202D0F8E004126A71
:1013900002F03BBC01EBC10200EB8202D0F8E0049A
:1013A000D2F8602202F08DBCD0F8E00402F0D5BC87
:1013B0000A0601F00F0101EBC10100EB810101D52B
:1013C000143101E001F51571006803F0BBBB70B585
:1013D00004460B0601F00F0000EBC00104EB810195
:1013E0004FF001024FF0000502D54A75143103E0B9
:1013F00081F8555201F51571087094F8940401288C
:1014000008D084F89424206803F0B6F884F8945443
:10141000002070BD022070BD70B5044601F00F00C1
:101420002279904201D9012070BD0B0601F00F0115
:1014300001EBC10104EB81014FF001024FF0000507
:1014400002D54A75143103E081F8555201F5157142
:101450008D70087094F89404012808D084F89424BE
:10146000206803F0FBF984F89454002070BD02203A
:1014700070BD01F00F0101EBC10100EB8100D0F85C
:10148000680270472DE9F04104460F0601F00F0095
:1014900000EBC00104EB81014FF001064FF00005A5
:1014A00002D54E75143103E081F8555201F51571DE
:1014B000C2F30A0208708A600B714A7802B148834D
:1014C000022B00D14D7194F89404012809D084F8BE
:1014D0009464206802F09EFF284684F89454BDE886
:1014E000F0810220FBE710B501F00F0404EBC4010A
:1014F00000EB8101C1E998230023C1F8683281F82B
:10150000553281F85442837901F51571012B00D1D0
:10151000CA618279006803F0F9F9002010BD70B546
:1015200004460D4601F00F002179884201D90120BF
:1015300070BD29064FF000064FF0010206D500EB02
:10154000C00104EB81014A75143107E005EBC501C8
:1015500004EB810181F8556201F515718A700870FC
:1015600094F89404012807D084F89424206803F0A8
:10157000A1F9280702D007E0022070BDA17904F28A
:101580009C42206803F03EF984F89464002070BD0A
:1015900010B501F00F0404EBC40100EB8101C1E9B7
:1015A000082300238B6201234B7501F8144F8379C4
:1015B000012B00D1CA618279006803F0A7F90020ED
:1015C00010BD00002DE9FC5F05680446284603F0C5
:1015D00055FB00287DD1206803F07CFB002878D0E3
:1015E000D5F80808C0F30D20C4F8D404206803F02F
:1015F00071FB800704D52068416901F00201416157
:10160000206803F067FBC10604F29C40009034D5CB
:101610002068816921F0100181612F6A07F00F00B5
:1016200000EBC00004EB8006C7F3434006F51576D7
:10163000022802D0062811D01AE047F6F0700742BF
:1016400016D0C7F30A1217462846F16803F046FB86
:10165000F0683844F0607069384408E00822284691
:10166000009903F03BFB7069C7F30A1108447061ED
:101670002068816941F010018161206803F02AFB34
:1016800000034FF0080B4FF0000A4FF001097CD522
:101690000026206803F0FDFA074674E0F80770D0D2
:1016A000F1B2206803F00EFB8046C00707D005EBBF
:1016B0004611C1F8089B3146204601F0A1FB5FEAC4
:1016C000087024D505EB4611C1F808BB2068016CF1
:1016D00000E023E200EB46100191D0F8082BFB4B11
:1016E000994205D9110403D54FF40041C0F8081BF5
:1016F000204600F0F6FAF5490198884207D9A0790A
:10170000012804D120680121009A03F07BF85FEAE8
:10171000C86004D505EB46111020C1F8080B5FEA3C
:1017200088701DD56869000605D5D5F8040840F411
:101730008061C5F8041806EBC60004EB800090F841
:10174000571200F51570012905D180F803A0F1B2F8
:10175000204600F0E9F905EB46110220C1F8080B1C
:101760005FEA886004D505EB46102021C0F8081B0D
:101770005FEA884005D505EB46104FF40051C0F8EC
:10178000081B7F08761C002F88D1206803F0A2FA7E
:1017900040036ED5206803F075FA0746002666E020
:1017A000F80762D0F1B2206803F07AFA8046C007E9
:1017B00023D006F00F01D5F8342809FA01F18A4345
:1017C000C5F8342805EB4611C1F80899A07901281D
:1017D0000FD106EBC60004EB8000D0E907211144CD
:1017E000016236B9606A20B920680121009A03F0CD
:1017F00009F8F1B22046FFF7C4FD5FEA087003D58F
:1018000005EB4611C1F808B95FEAC86004D505EBDD
:1018100046111020C1F808095FEA486004D505EBBD
:1018200046104021C0F808195FEA887016D5314685
:10183000284603F0F8F906EBC60004EB8000C17DF2
:101840001430012905D180F803A0F1B2204600F040
:1018500067F905EB46110220C1F808095FEA086044
:1018600003D53146204601F031FB7F08761C002F5E
:1018700096D1206803F02EFA002811DAD5F8040872
:1018800020F00101C5F8041894F8CC0401282BD0ED
:10189000204600F00BFA2068416901F000414161E7
:1018A000206803F017FA00050BD5D5F80808C00723
:1018B00002D0204600F03EFA2068416901F4006140
:1018C0004161206803F006FAC00467D5D5F8040822
:1018D00020F00100C5F804081021206803F0A3F9E6
:1018E00000214FF67F3220E084F8CCA4002120466E
:1018F000FFF71CFDCFE700BF05EB4110C0F808293A
:10190000D0F8003923F40013C0F80039C0F8082BD0
:10191000D0F8003B23F40013C0F8003BD0F8003BA4
:1019200043F00063C0F8003B491C20798842E3D8AB
:10193000D5F81C0840F00111C5F81C18E07B002800
:1019400028460DD0D0F8840840F00B01C5F8841863
:10195000D5F8440840F00B012846C5F844180DE0BE
:10196000D0F8140842F22B010843C5F81408D5F842
:10197000100840F00B012846C5F81018D0F80008F0
:1019800020F4FE61C5F80018A1792068009A02F0E1
:1019900039FF2068416901F480514161206803F0FA
:1019A00099F9800415D5206802F074FD206803F0D1
:1019B00058F9E07100F00EFB0146E279206803F06F
:1019C000EBF9204600F05CF92068416901F4005110
:1019D0004161206803F07EF9000707D5204600F03A
:1019E00069F92068416901F008014161206803F04C
:1019F00071F9000616D5A86920F08001A9610126B9
:101A00000DE000BF06EBC60004EB800090F8570223
:101A1000012803D1F1B22046FFF7CAFC761C2079D9
:101A2000B042EFD8206803F055F9C0021FD5012657
:101A30004F4614E005EB4610D0F8000906EBC6014E
:101A400004EB81010A7E012A08D1002806DACF754D
:101A5000F0B240F080012046FFF7AAFC761C207906
:101A6000B042E7D82068416901F4801141612068E3
:101A700003F030F9800234D501204A4629E000BF46
:101A800005EB4011D1F8001B00EBC00304EB83030E
:101A900093F85862012E1BD1002919DA94F8D46406
:101AA000C1F3004106F001068E4211D183F857229E
:101AB000A96941F08003AB616969090608D4D5F8CA
:101AC000040840F40070C5F8040805E00A30544FDB
:101AD000401C21798142D3D82068416901F400116A
:101AE0004161206803F0F6F8400007D52046FFF773
:101AF00044FC2068416901F080414161206803F0A5
:101B0000E9F840070AD520684568680702D52046ED
:101B1000FFF74AFC2068416829434160BDE8FC9F0B
:101B2000D0F8E00402F06BB9D0F8E00402F07BB921
:101B3000F8B5040005D094F895042668002510B186
:101B400006E00120F8BD84F89454204600F056F8D1
:101B5000032084F89504B6F1A04F00D1A571206848
:101B600002F04AFE207C8DF8000094E80F0002F09D
:101B70009FFC0226B8BB0021206803F0CEF890BB82
:101B8000002001270DE000BF00EBC00104EB810144
:101B90004F750875C8850D76CD610D62401CC0B2C9
:101BA0004D6221798142EFD8002011E000EBC001A5
:101BB00004EB810181F8555281F8540281F85852A2
:101BC000C1F85C52C1F86052401CC0B2C1F8645206
:101BD00021798142EAD8207C8DF8000094E80F003A
:101BE00002F04CFD10B184F89564AAE7657484F89E
:101BF0009574206802F034FD0020F8BD10B586B061
:101C0000044614216846FEF7A6FB2068B0F1A04FF9
:101C10002FD119480021026842F0010202600068D9
:101C200000F0010005904FF4C05000900220CDE973
:101C30000101032003900A20049069460F48FFF732
:101C4000DDF90D48001D016841F0800101600A487E
:101C50001430016841F4804101600068002200F402
:101C60008040059011464320FFF72EFB4320FFF7ED
:101C70001DFB06B010BD00003038024000000240DD
:101C800070B50446C079012570B1022801D0FEF775
:101C900059FD2946D4F8E00402F034F9D4F8E00400
:101CA000BDE8704002F0E8B80025F2E7D0F8E004A3
:101CB00002F011B9D0F8E00402F017B910B50446EB
:101CC00090F8940401280AD0012084F894046174E7
:101CD000206803F050F8002084F8940410BD02201E
:101CE00010BDD0F8E02400F29C41104602F016B975
:101CF00010B50446006894F89414012909D0012114
:101D000084F89414C168490609D5617B012902D081
:101D100005E0022010BD816B41F4803181632068B1
:101D200002F05FFF206802F08DFC002084F894042C
:101D300010BD000010B50446D0F8E00402F030F900
:101D40002068D0F8001E41F00101C0F8001EE07AC2
:101D5000002804D00248016841F00601016010BD6E
:101D600010ED00E02DE9F843054600684FF0010949
:101D7000C1074FF0000601D1400727D5DFF80C81DD
:101D8000C8F86860FFF732FA0746414C05E000BF2B
:101D9000FFF72CFAC01B022857D820680001F7D49F
:101DA00068688101287A41EA007039498431086005
:101DB000C8F86890FFF71AFA074604E0FFF716FA2A
:101DC000C01B022841D820680001F7D52878800779
:101DD00052D52F484030016841F0805101600068C1
:101DE0002C4C00F080500090206840F480702060FF
:101DF000FFF7FCF9074604E0FFF7F8F9C01B0228DB
:101E000023D82068C005F7D5214C7034206810F421
:101E1000407020D0A98901F4407181421BD0206814
:101E20001D4920F44070C1F800900E6020602068C9
:101E3000C00710D0FFF7DAF9064641F2883707E00D
:101E4000FFF7D4F9801BB84202D90320BDE8F8831C
:101E500020688007F4D5E9680D48C1F301220830F5
:101E6000032A0BD0016821F4F81101602068A989C8
:101E7000C1F30B01084320600020E7E70268074B2D
:101E800022F4F81219400A430260EFE700004742CB
:101E90000038024000700040400E4742FFFCFF0F38
:101EA0002DE9F0470E46050065D0DFF81481D8F81B
:101EB0000000F7B200F00700B04207D288F80070C7
:101EC000D8F8000000F00700B04254D128683D4C1B
:101ED000810712D5400703D5206840F4E050206008
:101EE0002878000703D5206840F46040206020680F
:101EF000A96820F0F000084320602878C0072DD0A2
:101F0000304968680839012812D0022813D0032804
:101F100011D00968890700292DDA216821F0030111
:101F200001432160FFF762F9814641F2883A0EE0F1
:101F300009688903EFE709688901ECE7FFF756F9BB
:101F4000A0EB0901514502D90320BDE8F0872068C4
:101F5000696800F00C00B0EB810FEFD1D8F80010E9
:101F6000404601F00701B14207D90770006800F050
:101F70000700B04201D00120E7E72878400705D5E7
:101F80002068E96820F4E0500843206028780007C2
:101F900006D52068296920F4604040EAC10020602D
:101FA00000F03EF82168084AC1F30311515CC840B3
:101FB0000649086006480068FFF740F90020C4E7BA
:101FC000003C024008380240965200087800002089
:101FD0007000002001480068704700007800002071
:101FE0000448054900680968044AC1F38221515C2C
:101FF000C84070477800002008380240A652000808
:102000000448054900680968044AC1F34231515C3B
:10201000C84070477800002008380240A6520008E7
:10202000154810B5006810F00C02144813D0411088
:10203000042A0FD0082A0ED10F4C241F22682368CF
:1020400002F03F025B0207D52068C0F38810A0FBB6
:10205000010106E0084610BD2168C1F38811A1FB0B
:1020600000010023FEF700F92168C1F30141491C7A
:102070004900B0FBF1F010BD083802400024F40024
:102080002DE9F84F04006ED02078DFF84C93C0079C
:10209000A9F104054AD009F104000168C1F38101E6
:1020A000012908D00068C0F3810002280AD1D9F8BC
:1020B0000000400206D52868800337D560680028F4
:1020C000E1D033E06068B0F5803F10D0B0F5A02FCC
:1020D000286810D020F480302860286820F4802000
:1020E00028606068A8B1FFF781F806460DE028680F
:1020F00040F48030F4E740F480202860F7E700BF28
:10210000FFF774F8801B642873D828688003F7D51C
:102110000CE0FFF76BF8064605E000BFFFF766F836
:10212000801B6428F0D828688003F7D42078DFF873
:10213000AC8280074FF0000A3ED5A748001D016819
:1021400011F00C0F08D00068C0F3810002280BD1F9
:10215000D9F80000400207D42868800716D5E06847
:10216000012800D112E033E1E068B8B10120C8F8DD
:102170000000FFF73BF8064605E000BFFFF736F822
:10218000801B0228C0D828688007F7D528682169F5
:1021900020F0F80040EAC10028600DE0C8F800A077
:1021A000FFF724F8064604E0FFF720F8801B02281A
:1021B0001FD828688007F7D42078000722D5864FDB
:1021C00087486169703771B101210160FFF70EF82E
:1021D000064604E0FFF70AF8801B022809D8386891
:1021E0008007F7D50EE0C0F800A0FEF7FFFF064617
:1021F00005E082E0FEF7FAFF801B02287DD83868F0
:102200008007F7D42078400768D5DFF8CCB10027E5
:102210000BF13C0BDBF80000C0000BD4DBF8001026
:1022200041F08051CBF80010DBF80000012700F0EE
:10223000805000906B4E3068C00510D4306840F478
:1022400080703060FEF7D2FF009005E0FEF7CEFF11
:102250000099401A022850D83068C005F6D55E4E65
:10226000A0686C3601280FD00528306810D020F007
:1022700001003060306820F004003060A068B8B120
:10228000FEF7B4FF00900FE0306840F00100F4E783
:1022900040F004003060F7E7FEF7A8FF0099411A0C
:1022A00041F28830814266D830688007F4D50EE06C
:1022B000FEF79CFF009007E0FEF798FF0099411A97
:1022C00041F28830814256D830688007F4D42FB16B
:1022D000DBF8001021F08051CBF80010A069C8B3E2
:1022E0003D49091D0968C1F3810102294AD002282C
:1022F000504607D0C8F8600000E03CE0FEF776FFEB
:1023000004463BE04746C8F86000FEF76FFF06460C
:1023100005E000BFFEF76AFF801B02282BD8286863
:102320008001F7D4D4E907010843A16A2E4A49087D
:1023300002EB0141626A41EA8211084394F82C10D1
:1023400040EA0161C9F8001001203866FEF74EFF2F
:10235000044606E03EE000BFFEF748FF001B0228EF
:1023600009D828688001F7D534E000BFFEF73EFFAA
:10237000001B022802D90320BDE8F88F28688001DD
:10238000F4D427E00128F7D0D9F80000E26900F47E
:10239000800191421CD1226A00F03F01914217D185
:1023A00047F6C071626A0140B1EB821F10D1A26A88
:1023B0004FF0FF3300F4403103EB5202B1EB024F18
:1023C00006D194F82C1000F07060B0EB016F01D0D2
:1023D0000120D1E70020CFE7043802400000474247
:1023E000800E4742007000400000FFFF10B504005F
:1023F00002D0607F10B106E0012010BD00202077E0
:10240000204600F041F8022060772068C168C94387
:10241000C90632D5CA21416221685320486220464C
:1024200000F0A6FD20BB20688168164A114081603B
:102430002168886862681043D4E904231A43104372
:1024400088602168E068086120680169228941EAA2
:1024500002410161204600F0AFFD48B921680A6CD5
:1024600022F480220A6421680A6CA3691A430A6470
:102470002268FF21516208B110BD0020012161775F
:1024800010BD0000BFFF8FFF1FB50021009101911B
:10249000029103910068084988420CD10220009003
:1024A000C00103906846FFF75DFC08B1FEF74AF9EA
:1024B0000249012008601FBD002800403C0E474231
:1024C00070B504460B482168C860FEF78FFE0546CC
:1024D0004FF47A7607E000BFFEF788FE401BB0425B
:1024E00001D9032070BD2068C0688006F4D50020A3
:1024F00070BD00005F7F010070B5040009D0606A04
:10250000002540B125616561A56294F8510040B194
:102510000CE0012070BD6068B0F5827FF4D0E56109
:10252000F2E784F85050204600F044F8022084F886
:1025300051002068016821F040010160A0882189D4
:1025400000F4827001F404410843A18901F40061A0
:102550000843217C01F002010843217D01F00101C3
:102560000843218B01F400710843217F01F03801F9
:10257000084394F8201001F080010843218D01F4F4
:102580000051084321680860A069042101EA104055
:1025900094F8241001F01001084321684860206875
:1025A000C16921F40061C1616565012084F85100B1
:1025B000002070BD10B586B0044614216846FDF7B2
:1025C000CAFE13492068884220D1124800210268BF
:1025D00042F400420260006800F4004005900D489B
:1025E0001038026842F002020260006800F0020047
:1025F0000590282000900220CDE9010103200390DE
:102600000620049069460448FEF7F8FC06B010BDA9
:10261000003C0040403802400004024070B51546BE
:102620000E46040003D094F8490010B107E00120E1
:1026300070BD002084F84800204600F01DF804F129
:1026400008012068FEF79EF83146A2682068FEF770
:10265000CDF8D4E901022946236BFEF775F821680D
:10266000A06851F8202042F0010241F8202001200A
:1026700084F84900002070BDFEF778BC10B5401EFC
:10268000B0F1807F01D3012010BD4FF0E0246061E4
:102690000F21601702F01CFC0020A06107202061C0
:1026A000002010BD70B590F83C20012A32D00124E2
:1026B00080F83C40022280F83D2003685A689D68FB
:1026C00022F070060A6832435A60134B02689A423D
:1026D00014D0B2F1804F11D0104B9A420ED0104B53
:1026E0009A420BD00F4B9A4208D00F4B9A4205D01A
:1026F0000E4B9A4202D00E4B9A4204D1496825F003
:1027000080031943916080F83D40002180F83C101F
:10271000084670BD022070BD00000140000400406A
:1027200000080040000C004000040140004001404F
:102730000018004010B5040003D094F83D0010B11B
:1027400007E0012010BD002084F83C00204600F086
:102750001FF8022084F83D00211D206800F006FDCE
:10276000012084F8460084F83E0084F83F0084F895
:10277000400084F8410084F8420084F8430084F863
:10278000440084F8450084F83D00002010BD00009E
:1027900008B501680B48B1F1804F0BD00A4A91424D
:1027A00007D1016841F010010160006800F01000DD
:1027B000009008BD016841F001010160006800F06F
:1027C0000100F5E7403802400010004090F83D104D
:1027D000012901D001207047022180F83D100068D6
:1027E0001149884214D0B0F1804F11D00F4988426E
:1027F0000ED00F4988420BD00E49884208D00E49AE
:10280000884205D00D49884202D00D49884204D142
:10281000816801F00701062903D0016841F0010138
:1028200001600020704700000000014000040040EB
:1028300000080040000C004000040140004001403E
:102840000018004070B5044690F83C0000250128AF
:1028500017D0012684F83C60022084F83D002068EF
:10286000826822F0770222F47F4282600868502852
:1028700038D00DDC20284FD005DC90B3102811D1C2
:102880004AE0022070BD302846D040280AD13BE003
:1028900060282FD070280DD0B0F5805F03D0B0F540
:1028A000005F12D0012584F83D60002084F83C00D0
:1028B000284670BDCB68D1E90121206800F0BEFC3C
:1028C0002068816841F0770109E0CB68D1E90121F6
:1028D000206800F0B3FC2068816841F48041816089
:1028E000E1E719E0CA684968206800F0B9FC5021A6
:1028F000206806E0CA684968206800F0C2FC6021D0
:10290000206800F0A5FCCEE7CA684968206800F09E
:10291000A7FC40212068F4E7226801461046F0E752
:1029200070B5040004D094F84100002510B106E011
:10293000012070BD84F84050204600F023F8242088
:1029400084F841002068C16821F40051C16020462C
:1029500000F0AAFC2068016921F49041016120681F
:10296000416921F02A0141612068C16841F40051A8
:10297000C1606564202084F8410084F842006563EA
:10298000002070BD10B586B0044614216846FDF7DE
:10299000E2FC14492068884221D1134800210268D2
:1029A00042F010020260006800F0100005900E482E
:1029B0001438026842F001020260006800F0010071
:1029C00005904FF4C06000900220CDE90101032082
:1029D00003900720049069460448FEF70FFB06B0F9
:1029E00010BD0000001001404438024000000240C9
:1029F000FEE70000F0B500230A24302537261F46E5
:102A000011E000BFB4EB107F02D905EB107C01E0B0
:102A100006EB107C01F813C001EB430C00015B1CBA
:102A20008CF80170DBB29342ECD3F0BD1FB50021EE
:102A30001648009101910291134A039102604FF4EC
:102A40008032C0E901210161017680F82010120373
:102A5000C26201244FF0C062C4618262C16080F82A
:102A600030404461FDF786FF08B1FDF76BFE00942E
:102A70000194694605480294FDF7D6FE002801D06E
:102A8000FDF760FE1FBD0000002001400C0100208A
:102A90001CB500240C4900940A48019408600846BB
:102AA000FEF70BF808B1FDF74DFE0420CDE9000458
:102AB000002269460448FDF7D6FF002801D0FDF743
:102AC00041FE1CBD00740040B4010020114808B54F
:102AD000016841F400110160016801F400110091E6
:102AE000016841F4800101600068002200F4800068
:102AF000009011461020FEF7E7FB1020FEF7D6FBF2
:102B0000002211463820FEF7DFFBBDE808403820E0
:102B1000FEF7CCBB3038024070B58EB01C21684641
:102B2000FDF719FC1C2107A8FDF715FC1B484FF009
:102B30002041102201601A49416000218160C1607A
:102B4000C0E904128161C16113020162C0E9091385
:102B50009302C0E90B1341638163416406200223A1
:102B60000F24CDE900340A2509901126CDE902058C
:102B7000CDE904260DF1180C08488CE81A00CDE9BF
:102B80000A52CDE90C6107AA6946FFF747FD002804
:102B900001D0FDF7D7FD0EB070BD00002802002067
:102BA000040100A000B587B014216846FDF7D3FBEF
:102BB00022480021026842F004020260026802F02A
:102BC00004020592026842F080020260026802F08C
:102BD00080020592026842F001020260026802F07F
:102BE00001020592026842F010020260026802F0DF
:102BF00010020592026842F008020260026802F0C8
:102C000008020592026842F002020260006800F0C9
:102C100002000590012000904FF48810CDE90101D9
:102C200069460748FEF7EAF9002211460620FEF73A
:102C30004BFB0620FEF73AFB07B000BD30380240E0
:102C4000000002400B4810B50949016000217F22B5
:102C5000C0E90112FF22C0E9032141618161FFF750
:102C6000C5FB002803D0BDE81040FDF76BBD10BDCB
:102C700000280040780200200F4810B50D4901607F
:102C80004FF48271416000218160C1604FF4007295
:102C90000161C0E90512C1610162416281620A21DC
:102CA000C162FFF729FC002803D0BDE81040FDF702
:102CB00049BD10BD003C00409802002010B586B010
:102CC00000241648009401940294039404944FF055
:102CD0008041059401605321C0E901141321C0E92A
:102CE00003148461FFF726FD08B1FDF72BFD4FF4B7
:102CF0008050009069460948FFF7A4FD08B1FDF730
:102D000021FD2020CDE9040404A90448FFF7CAFCF2
:102D1000002801D0FDF716FD06B010BDF00200201E
:102D20001CB500240E4800940C4901940160532105
:102D3000C0E90114C4608461FFF7FCFC08B1FDF731
:102D400001FD2020CDE9000469460548FFF7AAFCF3
:102D5000002801D0FDF7F6FC1CBD0000001000406B
:102D6000380300200C4810B50A4901604FF4E131E6
:102D70004160002181600C22C160C0E904128161C0
:102D8000C161FFF7CDFD002803D0BDE81040FDF77D
:102D9000D9BC10BD001001408003002010B50022F6
:102DA0000F49104800F00CFF08B1FDF7CBFC0E49AD
:102DB0000C4801F021F908B1FDF7C4FC0B490948A2
:102DC00000F0C6FC08B1FDF7BDFC064801F098F91B
:102DD000002803D0BDE81040FDF7B4BC10BD0000D2
:102DE00008000020C8030020D40000205800002064
:102DF000FEE7FEE70148FEF7E5BB0000C41A00202D
:102E00002DE9F04103680D4604461E6C03EB4511A5
:102E1000D1F8080B94F806E04FF400474FF0200C6F
:102E200004F29C42BEF1010F09D0DFF898E076452C
:102E300039D1020432D500BFC1F8087B3FE0224BF4
:102E40005FEA007E04D59E4239D90004F4D436E00E
:102E50005FEA806E02D5C1F808CB30E010F0280F91
:102E60002DD19E4201D90004E6D405EBC50004EB48
:102E70008000D1F8101BD0F87432C1F31201591A36
:102E8000C0F8681200F51570ADB903691BB1C268CE
:102E90001144C1600FE0012120680AE080060AD5D4
:102EA000C1F808CB07E035B9D4F8640218B900219D
:102EB000184601F0A7FCE9B22046FEF76BFA0020A5
:102EC000BDE8F0810A31544F0A30544F2DE9F84FD4
:102ED0000E4601EBC60100EB810481460568D4E98A
:102EE00009101434884202D90120BDE8F88F081A6D
:102EF000A168814200D20846C01C870805EB46182D
:102F00001BE000BFA0EB010AA068504500D282463A
:102F10000AF10300870899F8060000901FFA8AF367
:102F2000F2B22846E16801F0ABFFE16801EB0A006C
:102F3000E060616901EB0A006061D8F8180980B2AD
:102F4000B84205D3D4E90401814201D20028D9D185
:102F5000D4E90401884208D806F00F010120884016
:102F6000D5F834188143C5F834180020BDE7704700
:102F70002DE9F041044600680025C168490618D4CF
:102F8000C16841F08001C160FEF730F906464FF498
:102F90007A78042707E000BFFEF728F9801B404538
:102FA00001D9677701252068C068400601D4002D4B
:102FB000F2D02846BDE8F08170B5044600680025CF
:102FC000C16821F08001C16020688068800606D455
:102FD0002046FFF775FA10B10420607701252846D6
:102FE00070BD70470178407841EA002070470000CA
:102FF0009FED201A70B5C0EE010A2DED068B00245E
:103000009FED1D8A9FED1D9ADFED1D9A9FED1DAA74
:103010001D4DDFED1EAA1E4E20EE880AF6EE000AB8
:1030200060EE208A00EE104AB8EEC00A60EE090A8F
:1030300080EEA90A01F05CFFF0EE4A0A48EE800A31
:1030400010EE900AA84201DDF0EE480AF5EEC00A43
:10305000F1EE10FA01D2F0EE6A0ABCEEE00A10EED0
:10306000100A26F81400641CC82CDBDBBDEC068BB0
:1030700070BD00003333534000F07F45DB0FC94083
:10308000000048430000004500F07F4500000000BC
:10309000A81F002008B50648FFF798FB002001464E
:1030A0000090C823034A0448FDF76CFD08BD0000EA
:1030B00038030020A81F0020B4010020FEF79CB8B0
:1030C00030B593B030216846FDF745F914210CA8BE
:1030D000FDF741F91F480025016841F0805101606A
:1030E000006800F0805011901B48016841F4804155
:1030F00001600068022400F48040119005200090D7
:103100004FF480300190012002908005CDE9064007
:10311000082008904FF4A870CDE9090407200B900F
:103120006846FEF7ADFF08B172B6FEE70CA90F20A6
:1031300081E831004FF4A0500F904FF48050109070
:1031400005210CA8FEF7ACFE002801D072B6FEE700
:1031500013B030BD403802400070004002480168A2
:1031600041F470010160704788ED00E0F0B502683D
:10317000274B284D284E294F294C4FF0804C984220
:1031800009D0604507D0A84205D0B04203D0B8426C
:1031900001D0A04204D122F0700E4A6842EA0E0229
:1031A00098421BD0604519D0A84217D0B04215D024
:1031B000B84213D0A04211D01A4DA8420ED01A4DD9
:1031C000A8420BD0194DA84208D0194DA84205D0ED
:1031D000184DA84202D0184DA84203D122F44075E0
:1031E000CA682A434D6922F080022A438D68C5626D
:1031F0000D688562984201D0A04201D1096901633E
:10320000016841F004010160012141610260F0BDEB
:10321000000001400004004000080040000C004095
:1032200000040140004001400044014000480140CA
:1032300000180040001C00400020004010B58468C9
:1032400042EA032224F47F440A432243826010BDF1
:10325000826822F070020A4342F0070181607047E1
:1032600010B5036A046A24F001040462846924F03E
:10327000F00444EA021423F00A020A438461026261
:1032800010BD10B5036A046A24F010040462846956
:1032900023F0A00324F4704444EA023243EA01110B
:1032A0008261016210BD000070B5044600680169CA
:1032B000E26821F44051114301612169A068E2698B
:1032C00008436169114308432168CA6849F20C63E5
:1032D0009A430243CA6020684169A26921F440719F
:1032E0001143416131492068884202D03049884207
:1032F00002D1FEF785FE01E0FEF772FEE2690023CF
:10330000192164253226B2F5004F626828D0A0FB4F
:103310000101930F9200FCF7A7FF0146B0FBF5F007
:103320006FF01802504301EB800006EB0010B0FB79
:10333000F5F000F0F002B1FBF5F002EB0012B1FB8A
:10334000F5F06FF01803584301EB800006EB001016
:10335000B0FBF5F000F00F0021681044886070BDEC
:10336000A0FB010192185B41FCF77EFF0146B0FB18
:10337000F5F00201B1FBF5F06FF01803584301EBD3
:10338000800006EBC000B0FBF5F000F0F80002EBA7
:103390004002B1FBF5F0584301EB800006EBC000A2
:1033A000B0FBF5F000F00700D6E700000010014088
:1033B000001401402DE9F0410C46D0F8D412D0F8A9
:1033C000C82200EB8101D1F8C01229B304F00F0626
:1033D00006EB860300EB830500276B694BB106EB18
:1033E000C60602EB8602D269B3FBF2F602FB163286
:1033F000A2B1C1F81472D0F8D42200EB8200D0F848
:10340000C40203692BB1D1F80802224601F5047108
:1034100098470020BDE8F0810320FBE700231A460F
:1034200021466F6100F0C9FDF3E770B50546D0F89D
:10343000D40205EB8000D0F8C04294B1284600F0D9
:103440009BFCC4F80C02D5F8D412D4F8040205EBA6
:103450008101D1F8C412CA6804F5037190470020B5
:1034600070BD032070BD000070B5234D044629785F
:1034700000F0C2FB2878002600F00F0000EB80006F
:1034800004EB800080F823606978204600F0B4FBEC
:10349000687800F00F0000EB800004EB800080F8FB
:1034A0006361A978204600F0A7FBA87800F00F0020
:1034B00000EB800004EB800080F82360C661D4F844
:1034C000D40204EB8000D0F8C01299B1D0F8C40245
:1034D00040688047D4F8D40204EB8000D0F8C002E2
:1034E00000F092FFD4F8D40204EB8000C0F8C06270
:1034F000C4F8BC62002070BD8000002010B5D0F878
:10350000D41200EB8100D0F8C04284B1D0F8C412CC
:1035100059B194F80002FF2807D08B6894F8012273
:1035200021469847FF2084F80002002010BD0320A8
:1035300010BD00000A21018000487047840000206F
:1035400070B5064682210C4800F0D9FA05460121E3
:10355000094800F0D4FA04468121074800F0CFFA68
:103560000DB11021A971402104B1A18000B1818069
:1035700043203080004870BD9000002070B50646A2
:1035800082210D4800F0BBFA054601210A4800F0EF
:10359000B6FA04468121084800F0B1FA0DB11021B5
:1035A000A9714FF4007104B1A18000B18180432062
:1035B0003080014870BD00009000002070B50646C4
:1035C00082210C4800F09BFA05460121094800F0D1
:1035D00096FA04468121074800F091FA0DB11021B6
:1035E000A971402104B1A18000B1818043203080C5
:1035F000004870BD900000202DE9F04704464FF4CC
:103600000775284600F002FF06004FF0000865D05D
:103610002946FCF7A0FED4F8D4023E4D04EB80000E
:103620004FF01009C0F8C062C4F8BC62207C4FF4AF
:10363000007A0127E8B3402302222978204600F0CF
:1036400006FC2878402300F00F0000EB800004EB1C
:10365000800080F8237002226978204600F0F7FB92
:103660006878082300F00F0000EB800004EB800076
:10367000032280F86371A978204601F00F0101EB65
:10368000810104EB8101C1F81C90A97800F0DFFBF7
:10369000A87800F00F0000EB800004EB800080F8B9
:1036A0002370C6F80482D4F8D402474604EB8000A5
:1036B00000E01BE0D0F8C40206F501760068804700
:1036C0003761776132687AB1207C00B34023697832
:1036D000204600F0C8FB0020BDE8F087D4F8D412E3
:1036E00004EB8101C1F8C0820220F5E753460222B3
:1036F0002978204600F0ABFB2878534600F00F00F5
:1037000000EB800004EB800080F82370A3E75346B1
:10371000DDE700008000002010B5D0F8D41200EBE7
:103720008101D1F8C01259B1027C084C002AD1F8AD
:10373000042207D04023617800F095FB002010BDE3
:10374000032010BD4FF40073F5E700008000002057
:1037500039B1D0F8D42200EB8200C0F8C4120020A6
:10376000704703207047D0F8D42200EB8200D0F8D5
:10377000C00218B1C0F8041200207047032070473F
:10378000D0F8D43200EB8300D0F8C00228B1C0F8E2
:103790001022C0F8081200207047032070472DE95E
:1037A000FC410646D0F8D4020C4606EB800000210E
:1037B000D0F8C0728DF80010ADF804100D4637B186
:1037C000217811F060022FD0202A4BD102E0032093
:1037D000BDE8FC81E288F2B109060DD5D0F8C4023B
:1037E00063783946D0F808C01846E047E288072ACF
:1037F00000D9072239462DE0607887F80002E0887A
:10380000402800D34020C2B287F801223946304612
:1038100000F058F82BE0D0F8C402637800228668E4
:1038200021461846B04722E0607830B101281ED00A
:103830000A2809D00B2815D110E096F89C0203281D
:1038400010D1022201A905E096F89C02032809D1B3
:1038500001226946304600F051F808E096F89C02D3
:10386000032804D02146304600F021F803252846DD
:10387000AEE710B5D0F8B82200245268904700B1E6
:103880000324204610BD00207047002070471346D7
:1038900010B50A46002100F0E6FA002010BD1346DC
:1038A00010B50A46002100F088FB002010BD10B5BD
:1038B0000446802100F062FB2046BDE81040002154
:1038C00000F05CBB10B50323C0F89432C0F854215B
:1038D000C0F858211346C0F864110A46002100F0D0
:1038E000C2FA002010BD10B50521C0F894120023C3
:1038F0001A46194600F0B7FA002010BD10B5022391
:10390000C0F8943242618261134641620A46002146
:1039100000F053FB002010BD10B50421C0F8941234
:1039200000231A46194600F048FB002010BD000095
:1039300010B50A46024903A000F00FF9004810BD77
:10394000A406002043444320436F6E66696700006D
:1039500012200880004870472800002010B50A4651
:10396000024903A000F0F9F8004810BDA4060020A9
:1039700043444320496E74657266616365000000CC
:1039800004200880004870472400002010B50A4633
:10399000024903A000F0E1F8004810BDA406002091
:1039A00053544D6963726F656C656374726F6E69B1
:1039B0006373000010B50A46024903A000F0CDF879
:1039C000004810BDA406002053544D3332205669E0
:1039D000727475616C20436F6D506F7274000000DB
:1039E00010B51A2008800A480168001D0468001DEF
:1039F0000068081809D008220649FEF7FBFF0549B0
:103A0000042210312046FEF7F5FF0248801E10BD4B
:103A1000107AFF1F3E000020F8B504460020ADF8E4
:103A2000000048880D46010A08295FD2DFE801F04E
:103A30005E0409175E5E3C45D4F8B412207C0A6827
:103A400019E0207C02260028D4F8B80205D0C16A0B
:103A5000684688470146467039E0816AF8E7C0B297
:103A6000062843D2DFE800F0030A1014181CD4F82B
:103A7000B402426805E0694690471CE0D4F8B402FD
:103A8000826892B3207CF6E7D4F8B402C268F8E703
:103A9000D4F8B4020269F4E7D4F8B4024269F0E75A
:103AA000D4F8B4028269ECE7207CF0B9D4F8B8020B
:103AB000416B68468847014609E0207CA8B9D4F8E4
:103AC000B802016B68468847014607204870EA88BB
:103AD0008AB1BDF8000040B1824200D90246ADF87B
:103AE00000202046FFF70AFFF8BDFFE729462046E1
:103AF000FFF7DDFEF8E72046FFF70EFFF4E778B5A5
:103B00000E4642880178002504468A4212D9ADF853
:103B100000100AE0694600F019F84178052904D13F
:103B200081780546B14205D000256188BDF80020A6
:103B30009142EFD8284678BD0146002002E0401CA3
:103B4000C0B2491C0A78002AF9D170470A88037864
:103B50001A440A8001780844704770B516460D462D
:103B6000002820D00446FFF7E7FF022101EB4001C7
:103B70004FF40070814204D82046FFF7DDFF40007B
:103B8000801C30803078287003206870022000226A
:103B900006E02954401CC0B22A54401CC0B2641C28
:103BA00021780029F5D170BD01004FF0000004D04C
:103BB000012901D0022901D003207047012070475C
:103BC00078B10023C0F8B832C0F8C432C0F8D0329F
:103BD00009B1C0F8B412012180F89C12027000F003
:103BE000CFB80320704710B5D0F8C802FDF714FC19
:103BF000BDE81040FFF7D8BF10B5D0F8C802FDF7F8
:103C0000E6FBBDE81040FFF7CFBF70B504460025C6
:103C100021B194F89C02032846D050E0D4F89412C5
:103C200004F11400022939D1818942688A420AD9F3
:103C3000511A41608289016911440161426820463C
:103C4000FFF72DFE0FE0914214D10068884211D396
:103C5000D4F8981288420DD2002211462046FFF770
:103C60001EFEC4F8985200231A461946204600F05A
:103C7000FAF813E094F89C02032808D1D4F8B802AB
:103C8000C16821B1C4F8D452C16820468847802158
:103C9000204600F073F92046FFF725FE94F8A002B5
:103CA00068B184F8A0520AE0D4F8B802426932B18F
:103CB000C4F8D452426920469047002800D1002021
:103CC00070BD10B50446002221B194F89C0203286F
:103CD00034D03EE0D4F8941204F5AA70032938D108
:103CE000818943688B420ED9591A416082890169E2
:103CF0001144016142688089824200D80246204610
:103D0000FFF7C5FD25E094F8AA0210F01F0003D0CC
:103D1000012802D0022800D0002294F89C02032837
:103D200008D1D4F8B802016921B1C4F8D4220169DC
:103D3000204688472046FFF7EFFD0AE0D4F8B80296
:103D4000836933B1C4F8D4228269204690470028A1
:103D500000D1002010BD0020704710B500240121C3
:103D600080F89C12D0F8B82222B1526801799047AD
:103D700000B10324204610BDD0F8C802FDF779BB7E
:103D800010B5017839BB15490222C1F8E004C0F82A
:103D9000C8124FF0A040086004200871CA710020CA
:103DA00088714A728872C87208738873C87308462B
:103DB000FDF7BEFE08B1FCF7C5FC80210748FDF702
:103DC000B6FA402200210548FDF7B5FA802201210C
:103DD0000248FDF7B0FA002010BD0000C41A002010
:103DE0000A0601F07F01D0F8C80201EBC10100EB27
:103DF000810001D5807D704790F85602704710B55C
:103E0000D0F8D42200EB8202D2F8B82222B190F886
:103E10009C32032B02D004E0032010BD126A02B1D1
:103E20009047002010BD10B5D0F8D42200EB8202DC
:103E3000D2F8B82222B190F89C32032B02D004E0D1
:103E4000032010BD526A02B19047002010BD10B58A
:103E50001C461346D0F8C8022246FDF713FBBDE806
:103E60001040FFF7A1BE10B5D0F8C802FDF73BFB2C
:103E7000BDE81040FFF798BE2DE9F041002601256E
:103E8000044680F89C52C4F894626660C4F8A46248
:103E900080F8A062D0F8B80230B1426822B10021A7
:103EA0002046904700B103260022402311462046B9
:103EB000FFF7CDFF402784F86351A4F860713B46BB
:103EC000002280212046FFF7C2FF84F82350278478
:103ED0003046BDE8F08190F89C12042903D190F897
:103EE0009D1280F89C120020704710B590F89C122B
:103EF000032905D1D0F8B81211B1C96901B18847B9
:103F0000002010BD01740020704710B5D0F8C80221
:103F1000FDF7D4FEBDE81040FFF746BE70B504467D
:103F200000F2AA20054600F051F80120C4F89402DE
:103F3000B4F8B002C4F8980294F8AA0210F01F0175
:103F40000AD001290ED0022912D000F080012046AB
:103F5000BDE8704000F012B829462046BDE8704028
:103F600000F0D0B829462046BDE8704000F013BAF2
:103F700029462046BDE8704000F05AB910B5D0F887
:103F8000C802FDF7CCFABDE81040FFF70DBE10B532
:103F9000D0F8C802FDF7ACFEBDE81040FFF704BE44
:103FA00090F89C12042903D090F89C1280F89D127E
:103FB000042180F89C120020704710B5D0F8C80288
:103FC000FDF7E6FABDE81040FFF7EEBD70B5054617
:103FD00011F8010B2870087868704C1C2046FFF718
:103FE00001F86880A41C2046FEF7FCFFA880A01CF6
:103FF000FEF7F8FFE88070BD38B504460020ADF844
:104000000000A1B1C4F8B812D4F8D40204EB8000C7
:10401000D0F8B802C16A19B168468847C4F8D0021E
:10402000D4F8D802401CC4F8D802002038BD0320C0
:1040300038BD02460020D2F8B832002B02D01B68EF
:1040400010461847704700002DE9F04188462B4E76
:104050008978002504463170012906D94146204659
:10406000FFF725FC0320BDE8F08194F89C020227AD
:1040700002280CD003281DD041462046FFF717FC2C
:1040800031782046FFF7F5FB03252846EBE789B397
:1040900020466160FFF7CDFF050004D04146204671
:1040A000FFF705FC1DE02046FFF736FC032084F8EF
:1040B0009C02EAE7C1B1606888421BD0C1B22046C9
:1040C000FFF7D7FB317820466160FFF7B2FF0500AC
:1040D00010D041462046FFF7EAFB21792046FFF742
:1040E000C8FB84F89C72D0E784F89C72204661601B
:1040F000FFF7BFFB2046FFF70FFCC6E77C00002060
:10410000FFF745BF2DE9F0410A78002512F0600263
:104110000CD0202A01D0402A7DD1D0F8D42200EB47
:104120008202D2F8B8229268904731E04B780022A0
:1041300001260A2B6FD2DFE803F041666E586E0845
:10414000056E2D29FFF768FC67E004468888D8B91A
:10415000C888C8B94888802816D200F07F0794F82C
:104160009C02032810D084F89E7239462046FFF73F
:10417000CCFE2046FFF7D0FB1FB1022084F89C0242
:104180004BE084F89C6248E0204644E0FFF75CFF87
:10419000054642E0CB88012B3DD190F89C32012BA3
:1041A00004D0022B02D0032B35D104E0826001221F
:1041B00000F1080116E00122011D13E090F89C2295
:1041C000012A03D0022A01D0032A24D1CA88022A54
:1041D00021D1C660D0F8A41209B10321C160022226
:1041E00000F10C01FFF78AFB17E04A88012A02D090
:1041F000022A03D00FE0C0F8A46216E08988090AF9
:1042000080F8A01211E090F89C32012B08D0022B0C
:1042100006D0032B04D0FFF74AFB2846BDE8F08107
:1042200049880129F9D1C0F8A422FFF775FBF4E70A
:104230002DE9F041054608780C790E464FF000084C
:1042400010F060000BD0202801D040286BD121460F
:104250002846FFF718FBFF2800D0D8B398E0707805
:10426000C8B3012824D003285DD195F89C02022808
:1042700002D0032857D10CE0002C54D0802C52D00F
:1042800021462846FFF77AFE80212846FFF776FE72
:104290007EE0708840B93CB1802C05D0C88818B940
:1042A00021462846FFF76AFE2846FFF735FB6FE0F8
:1042B00095F89C020228DFD0032866D1708888BB5D
:1042C000600603D021462846FFF78DFC2846FFF7FD
:1042D00023FBBCE700E00AE0C5F8D402D5F8B80239
:1042E0008268FAB1314628469047804650E095F8FA
:1042F0009C020027022802D0032846D114E00CB10A
:10430000802C42D1200604F07F0000EB800005EBFA
:10431000800101D5143101E001F5AA71022201F8F2
:104320000E7F2EE034E030E0200604F00F0000EBBA
:10433000800005EB80000AD590F8230028B304F034
:104340007F0000EB800005EB800614360AE090F851
:104350006301D0B104F07F0000EB800005EB800624
:1043600006F5AA764CB1802C07D021462846FFF7E7
:1043700037FD10B10120B07300E0B773022206F1DF
:104380000E012846FFF7BAFA02E02846FFF78FFA37
:104390004046BDE8F08170B50546087800240E4619
:1043A00010F0600003D0202801D0402827D195F8D4
:1043B0009C02012803D0022801D003281FD1B08815
:1043C000C1B201291AD8C1B22846FFF75EFAFF2808
:1043D0000CD058B9D5F8B8128A683AB1C5F8D402E9
:1043E0008A68314628469047044600E00324F08856
:1043F000204307D12846FFF78FFA03E031462846CD
:10440000FFF755FA204670BD70470000004870471E
:10441000A418002070B50A78012302F00F054E7829
:10442000AB401B4CD0F81C58012E17D045EA034373
:10443000C0F81C3800EB4210D0F8002B12040BD44B
:10444000D0F8002B0B890979C3F30A031A4344EA15
:1044500081410A43C0F8002B002070BD9BB21D4370
:10446000C0F81C5800EB4210D0F800391B04F3D4FC
:10447000D0F800390D890979C5F30A0589042B4361
:1044800041EA82510B432343C0F80039E4E70000BE
:1044900000800010D0F800196FF30A01C0F800196D
:1044A000D0F8041841F48071C0F804180020704757
:1044B00070B50D460446C2F3072104981E46012933
:1044C0001BD0E06840F04000E060204600F032F889
:1044D000C6F307210029A16B26D021F48031A16306
:1044E000C5F30741012907D1A16841F00601A16088
:1044F000A16841F02001A16070BDA16B21F4803161
:10450000A163E1680A4A1140E160E16821F44011C9
:10451000E160C0B2012803D1E06840F48010E0609F
:10452000204600F007F8DBE741F48031D7E70000D0
:10453000BFFFBDFF08B5002100914FF07061009AE8
:10454000521C00928A4210D80269002AF7DA0A2225
:104550000092521E0092FCD1026942F001020261F7
:10456000009A521C00928A4201D9032008BD0269B8
:10457000D207F5D1002008BD30B54C780A78012368
:1045800000EB4212012C2CD0D2F8004B002C0BDA9D
:10459000D2F8004B44F00064C2F8004BD2F8004B54
:1045A00044F08044C2F8004BD0F83C580C7804F03A
:1045B0000F0403FA04F425EA0444C0F83C48D0F898
:1045C0001C48097801F00F018B4024EA0341C0F830
:1045D0001C18D2F8000B19490840C2F8000B002043
:1045E00030BDD2F80049002C0BDAD2F8004944F073
:1045F0000064C2F80049D2F8004944F08044C2F88F
:104600000049D0F83C480D7805F00F0503FA05F590
:10461000ADB2AC43C0F83C48D0F81C48097801F072
:104620000F018B4099B28C43C0F81C48D2F80009A6
:1046300003490840C2F80009D1E700000078F3EF11
:10464000007833ECD0F8001E21F00301C0F8001E02
:10465000D0F8041821F00201C0F8041800207047B7
:10466000D0F8001E21F00301C0F8001ED0F8041895
:1046700041F00201C0F80418002070472DE9F04F06
:1046800000250E46044617462846294604EB8002BC
:10469000C2F80411401C0F28F8D3C3F307405FEAA7
:1046A0000009204616D0806B20F40012A263A06B94
:1046B00040F40022A263084688462146C4F8000E52
:1046C000C7F30720012817D00846D1F8001841F099
:1046D000030118E0D0F8040840F00202C4F80428EE
:1046E000A06B40F40012A263A06B20F40022A2632E
:1046F000A06B20F48022DDE7300E0846D1F80018C8
:1047000001D041F00101C0F80018102100F08BFA2F
:1047100000B10125204600F06AFA00B101254046AB
:10472000C4F81088C4F81488C4F81C8800214FF01D
:10473000006B4FF0904E4FF67F3AF2B215E000BF9B
:1047400004EB4113D3F800C9BCF1000F06DA11B134
:10475000C3F800E904E0C4F800B901E0C3F80009B7
:10476000C3F81009C3F808A9491C8A42E8D80021F7
:1047700015E000BF04EB4113D3F800CBBCF1000FF0
:1047800006DA11B1C3F800EB04E0C4F800BB01E0A5
:10479000C3F8000BC3F8100BC3F808AB491C8A42DE
:1047A000E8D8D4F8101821F48072C4F81028A06159
:1047B0006FF080406061C6F3074018B9A06940F00F
:1047C0001000A061A0690A490843A061C7F307402F
:1047D00018B1A06940F00800A061B9F1010F03D140
:1047E000A06904490843A0612846BDE8F08F000095
:1047F00000383C8004000040816821F001018160A4
:104800000020704710B5036C134CA34203D9D0F8B5
:10481000003B002B1EDB0023C0F8103BD0F8103B00
:1048200043F40023C0F8103BD0F8103B43F01803CA
:10483000C0F8103BD0F8103B43F0C043C0F8103B29
:10484000012907D1C0F8142BD0F8001B41F08021BA
:10485000C0F8001B002010BD0A30544F4A780B7876
:10486000012A00EB43100BD0D0F8002B22F40012E9
:10487000C0F8002B0979032914D0022912D017E0BF
:10488000D0F8002922F40012C0F800290979032980
:1048900001D002290CD1D0F8001941F08051C0F8A4
:1048A000001905E0D0F8001B41F08051C0F8001B52
:1048B000002070470A784B78D1B200EB4110012BF1
:1048C00012D0D0F8001B002906DB2AB1D0F8001B5B
:1048D00021F08041C0F8001BD0F8001B41F400110A
:1048E000C0F8001B00207047D0F80019002906DB33
:1048F0002AB1D0F8001921F08041C0F80019D0F891
:10490000001941F40011C0F80019EBE7F8B50C7874
:104910004F788B4DE3B26FF0604600EB4313012FED
:1049200029D0D3F8107B6FF31207C3F8107BD3F8AC
:10493000107B2F40C3F8107B002C7DD00D69002D1B
:104940007BD08C6825446D1EB5FBF4F5ADB26C438D
:104950000C62D3F8104B06EAC5452C43C3F8104B44
:10496000D3F8104B0D6AC5F312052C43C3F8104B56
:10497000012A70D0CBE00F69EFB1D3F810796FF353
:104980001207C3F81079D3F810792F40C3F81079C3
:104990000CB30F698D682F447F1EB7FBF5F5D3F874
:1049A0001079ADB206EAC5463743C3F810790E79DF
:1049B000012E1CD02AE0D3F810692E40C3F81069EC
:1049C000D3F8105945F40025C3F81059D3F81059FD
:1049D0006FF3120520E00E698D68AE4200D90D61BB
:1049E000D0F8105945F40026C0F810690EE0D3F84D
:1049F000106926F0C046C3F81069D3F810694FF06B
:104A0000C04707EA45752E43C3F81069D3F810591B
:104A10000E69C6F312063543C3F81059012A1BD09C
:104A200000EB4413D3F8004944F00444C3F80049B0
:104A30000C79012C31D001E044E057E00A695AB307
:104A4000D0F83428097801F00F03012199400A4376
:104A5000C0F8342871E056E0CA691AB100EB44137B
:104A6000C3F81429097901290ED1D0F80818C9050D
:104A700000EB4411D1F8002902D442F0005201E0C9
:104A800042F08052C1F8002900EB4410D0F8001920
:104A900041F00441C0F800194FE0D0F80848E4059F
:104AA000D3F8004902D444F0005401E044F08054AB
:104AB000C3F8004900920A8A93B20A78C96800F0E4
:104AC000DFF93AE00C690CB18C680C618C680C62FF
:104AD000D0F8105BC4F312042543C0F8105BD0F883
:104AE000104B44F40024C0F8104B41E7D3F8104BAE
:104AF0008D68C5F312052C43C3F8104BD3F8104B47
:104B000044F4002432E7CA680AB1C3F8142B0979C7
:104B100001290CD1D0F80808C005D3F8000B02D445
:104B200040F0005001E040F08050C3F8000BD3F893
:104B3000000B40F00440C3F8000B0020F8BD00005B
:104B4000FFFF07E038B50022009213464D780A783F
:104B500042F2107400EB4212012D19D0D2F8005B22
:104B6000002D3CDAD2F8005B45F00065C2F8005B2E
:104B70000A7800EB4212D2F8005B45F08045C2F89B
:104B8000005B009A521C0092A24221D9012326E028
:104B9000D2F80059002D22DAD2F8005945F000650C
:104BA000C2F800590A7800EB4212D2F8005945F0D9
:104BB0008045C2F80059009A521C0092A242E5D8E2
:104BC0000A7800EB4212D2F80029002AF3DB06E053
:104BD0000A7800EB4212D2F8002B002AD1DB1846EB
:104BE00038BD816841F0010181600020704708B53F
:104BF00000214FF070620091009B5B1C0093934278
:104C00000AD80369002BF7DA00911021016100999D
:104C1000491C0091914201D9032008BD0169C906D0
:104C2000F5D4002008BD18B500224FF07063009243
:104C3000009C641C00949C420CD80469002CF7DA98
:104C40000092202242EA811101610099491C0091E1
:104C5000994201D9032018BD01698906F5D40020C5
:104C600018BDD0F8080810F0060004D0022803D0C0
:104C7000062801D00F20704702207047406900F0DD
:104C800001007047D0F81818D0F81C08084080B20E
:104C90007047D0F81818D0F81C080840000C70476E
:104CA00010B5D0F81038D0F8342801F00F0400EB1C
:104CB0004110E24002F00102D0F8080943EAC212B2
:104CC000104010BD00EB4111D1F8081BD0F81408BA
:104CD00008407047416980690840704730B5034615
:104CE0000846940802F00301002203F5805303E014
:104CF0001D6840F8045B521CA242F9D300290BD076
:104D00001C680022D50024FA05F3491E521C090430
:104D100000F8013B090CF5D130BD70B50446C06800
:104D2000002520F0C040E060012901D079B120E0E9
:104D3000E06840F00050E0600A20FCF705F9606987
:104D40000A3510F0010F10D1C82DF5D30DE0E06841
:104D500040F08040E0600A20FCF7F6F860690A3510
:104D600010F0010F01D0C82DF5D3C82D01D00020BF
:104D700070BD012070BDD0F8002822F4FE62C0F89A
:104D80000028D0F800284FF4FE6303EA01110A431B
:104D9000C0F8002800207047022A3ED1264A274B3F
:104DA0000A449A4201D20F2138E0254A254B0A4491
:104DB0009A4201D20E2131E0234A244B0A449A42FE
:104DC00001D20D212AE0224A224B0A449A4201D202
:104DD0000C2123E0204A214B0A449A4201D20B21A4
:104DE0001CE01F4A1F4B0A449A4201D20A2115E0D7
:104DF0001D4A1E4B0A449A420FD31D4A1D4B0A44BA
:104E00009A4201D2082109E01B4A11441B4A9142EF
:104E100001D2072102E0062100E00921C26822F444
:104E20007052C260C2684FF4705303EA81210A4392
:104E3000C260002070470000405327FF00350C007F
:104E4000401E1BFF40420F0000DC0BFF804F120092
:104E5000808CF9FE20D6130060B6E5FE60E31600F4
:104E600000D3CEFE40771B00C05BB3FEC091210093
:104E700000CA91FE20753800E05459FEE09C4100C4
:104E800010B5029C74B9DB1C9C0800EB02300023B7
:104E900000F5805004E000BF51F8042B02605B1C59
:104EA000A342F9D3002010BDFEE74100080218BF5D
:104EB00004200A0E18BF40F001004FF07F4232EA92
:104EC000010108BF40F00200012808BF052070471B
:104ED0000907090E002804DB00F1E02080F8001427
:104EE000704700F00F0000F1E02080F8141D7047BB
:104EF00000B510EE101A2DED028B81B0524A6846B3
:104F0000B2EB410F2ED94FF0E640B0EB410F94BF0A
:104F100000204FF0FF3000900098B0EE408A00284B
:104F20006ADB10F0010F4BD068EE080A9FED471ABC
:104F30009FED470A00EE810A9FED461A10F0020F1E
:104F400000EE801AB7EE000A00EE810A02BF01B03F
:104F5000BDEC028B00BD00BF01B0B1EE400ABDEC5C
:104F6000028B00BD3C4B21F00042934241D911F02D
:104F7000004FDFED3A0A20EE201ADFED390A19BFA3
:104F800031EE601A71EE200A31EE201A71EE600ADD
:104F9000BDEEE01A11EE100A9FED321A00F0030088
:104FA00000EEC10A9FED301A009000EEC10A9FED9D
:104FB0002F1A00EEC10A9FED2E1A00EEC10AABE7D0
:104FC00028EE080A9FED2B1ADFED2B0A10F0020FD6
:104FD00040EE410A9FED291A00EE201A61EE000A08
:104FE000B0EE480A08EE200AB6D101B0BDEC028B43
:104FF00000BD00F075F88FE718EE100A4000B0F120
:105000007F4F0DD218EE100AFFF74FFF042808BF9C
:1050100000F05EF8B0EE480A01B0BDEC028B00BDB6
:1050200009D10120FBF7C6F901B0BDEC028B5DF898
:1050300004EB00F045B801B0B0EE480ABDEC028BBD
:105040005DF804EB00F039B8B61F927EB93AB2BAF7
:10505000CA9F2A3DDDFFFFBE490E494683F9223F24
:105060000000004B0000C93F00A0FD390020A23322
:105070001A61342C336D4C39DA82083CA0AA2ABE5E
:1050800010B52DED028BB1EEC08A18EE100A20F09B
:105090000040C0F1FF40C00F0AD010EE100A20F00F
:1050A0000040C0F1FF40C00F04BF0120FBF782F9B0
:1050B000B0EE480ABDEC028B10BD30EE000A70471E
:1050C000DFED020A80EEA00A704700000000000039
:1050D0009FED020A20EE000A704700000000001059
:1050E0002DE9F0014FF07F42B2EB410F9FBF4FF02F
:1050F000FF310160BDE8F00170474FF0004242EA25
:105100000123C1F3C752783A551112F01F0C434CDA
:10511000CCF120067C44C1F3C752A2F178024FEAD9
:10512000621204EB820254F8254008BFD2E901560E
:1051300012D0556804FA0CF425FA06F73C43976838
:1051400005FA0CF527FA06F8D26807FA0CFCF240CB
:1051500045EA08054CEA0206A4FB034CA5FB0352F2
:10516000A6FB03631D449D4234BF0126002613198C
:10517000334416B1934202D903E0934201D2012293
:1051800000E00022624402F1200C9206DC0C42EAAC
:10519000443200EE102A5B03DFED210AF8EEC01A5C
:1051A00000EE103A4FEA9C1C11F0004FB8EE400A96
:1051B000C0F800C020EE201A00EE105ADFED190AE8
:1051C000B8EE400A20EE200A71EE810A70EE800AE5
:1051D00010EE902A02F500626FF30B0200EE902AA7
:1051E00070EEE11A31EEC11ADFED101A30EE411AFD
:1051F0009FED0D0A20EE800A01EE210A9FED0C1AA8
:1052000000EE810A04BFBDE8F0017047CCF1805187
:105210000160BDE8F001B1EE400A7047980100005E
:10522000000000360000802C22AAFD29DB0FC92FC8
:105230000000C92FFBF7E8FFFDF742FFFDF7B2FCC6
:10524000FDF744FCFDF768FCFDF7FCFCFDF714FDE1
:10525000FDF788FDFDF7A2FDFDF71AFCFDF760FDE7
:10526000FDF7E4FBFDF72AFDDFED050AB0EE000ACD
:10527000FBF79EF9FDF7BCFEFDF70CFFFEE7000013
:1052800000409C454FF04070E1EE100A7047000668
:1052900010160006101600000000000000000102B9
:1052A00003040607080900000000010203040000CF
:1052B000000000006E83F9A22915444ED15727FC47
:1052C000C0DD34F5999562DB4190433CAB6351FE00
:1052D000F0520008000000200C010000C40100088A
:1052E000FC5300080C0100208C260000E00100089F
:1052F000000000000000000051390008813900085A
:105300008D390008B5390008E13900083139000845
:105310005D39000804030904120100020202004082
:105320008304405700020102030100001A03000039
:10533000000000000000000000000000000000006D
:105340000000000000000000710500086B05000867
:105350006705000895050008AD050008010000007C
:1053600010000000000000000024F4000000000015
:10537000810182000A0600020000004001000000D6
:1053800009024300020100C03209040000010202C8
:10539000010005240010010524010001042402027B
:1053A0000524060001070582030800100904010016
:1053B000020A000000070501024000000705810203
:1053C00040000000F9350008693400089F370008E4
:1053D00000000000FD340008B53300082B3400083D
:1053E0000000000000000000000000007D35000803
:0C53F00041350008BD35000835350008C7
:040000050800018965
:00000001FF
